:020000040800F2
:10000000005000200136000899270008A1270008A9
:10001000A9270008B1270008B92700080000000040
:10002000000000000000000000000000C1270008E0
:10003000CD27000800000000D9270008E5270008A8
:100040004936000849360008493600084936000894
:100050004936000849360008493600084936000884
:100060004936000849360008493600084936000874
:100070004936000849360008493600084936000864
:100080004936000849360008493600084936000854
:100090004936000849360008493600084936000844
:1000A00049360008F127000849360008493600089B
:1000B0004936000805280008493600084936000876
:1000C0004936000849360008493600084936000814
:1000D0004936000849360008493600084936000804
:1000E000493600084936000849360008000000007B
:1000F0000000000000000000000000000000000000
:0C01000000000000000000005FF808F1A3
:1001100010B5054C237833B9044B13B10448AFF341
:1001200000800123237010BDD401002000000000D6
:10013000F898000808B5034B1BB103490348AFF317
:10014000008008BD00000000D8010020F8980008D9
:1001500010F8012B11F8013B012A28BF9A42F7D071
:10016000D01A7047034613F8012B002AFBD1181A46
:100170000138704781F0004102E000BF83F0004386
:1001800030B54FEA41044FEA430594EA050F08BF32
:1001900090EA020F1FBF54EA000C55EA020C7FEAF6
:1001A000645C7FEA655C00F0E2804FEA5454D4EB73
:1001B0005555B8BF6D420CDD2C4480EA020281EA3D
:1001C000030382EA000083EA010180EA020281EA75
:1001D0000303362D88BF30BD11F0004F4FEA0131C7
:1001E0004FF4801C4CEA113102D0404261EB4101D6
:1001F00013F0004F4FEA03334CEA133302D052425C
:1002000063EB430394EA050F00F0A780A4F1010417
:10021000D5F1200E0DDB02FA0EFC22FA05F2801851
:1002200041F1000103FA0EF2801843FA05F3594137
:100230000EE0A5F120050EF1200E012A03FA0EFCB6
:1002400028BF4CF0020C43FA05F3C01851EBE371E0
:1002500001F0004507D54FF0000EDCF1000C7EEBFD
:1002600000006EEB0101B1F5801F1BD3B1F5001F3B
:100270000CD349085FEA30004FEA3C0C04F101045A
:100280004FEA445212F5800F80F09A80BCF1004F83
:1002900008BF5FEA500C50F1000041EB045141EA05
:1002A000050130BD5FEA4C0C404141EB0101013CCE
:1002B00028BFB1F5801FE9D291F0000F04BF0146BD
:1002C0000020B1FA81F308BF2033A3F10B03B3F18F
:1002D00020020CDA0C3208DD02F1140CC2F10C021F
:1002E00001FA0CF021FA02F10CE002F11402D8BF7D
:1002F000C2F1200C01FA02F120FA0CFCDCBF41EA49
:100300000C019040E41AA2BF01EB0451294330BD17
:100310006FEA04041F3C1CDA0C340EDC04F11404F4
:10032000C4F1200220FA04F001FA02F340EA0300CB
:1003300021FA04F345EA030130BDC4F10C04C4F111
:10034000200220FA02F001FA04F340EA03002946F1
:1003500030BD21FA04F0294630BD94F0000F83F43B
:10036000801306BF81F480110134013D4EE77FEA1E
:10037000645C18BF7FEA655C29D094EA050F08BF6A
:1003800090EA020F05D054EA000C04BF194610464B
:1003900030BD91EA030F1EBF0021002030BD5FEA8F
:1003A000545C05D14000494128BF41F0004130BDB7
:1003B00014F580043CBF01F5801130BD01F000450B
:1003C00045F0FE4141F470014FF0000030BD7FEA7E
:1003D000645C1ABF194610467FEA655C1CBF0B4679
:1003E000024650EA013406BF52EA033591EA030F90
:1003F00041F4002130BD00BF90F0000F04BF002188
:10040000704730B54FF4806404F132044FF00005BA
:100410004FF0000150E700BF90F0000F04BF002133
:10042000704730B54FF4806404F1320410F0004599
:1004300048BF40424FF000013EE700BF42004FEA94
:10044000E2014FEA31014FEA02701FBF12F07F4311
:1004500093F07F4F81F06051704732F07F4208BFC8
:10046000704793F07F4F04BF41F40021704730B5CF
:100470004FF4607401F0004521F000411CE700BF1B
:1004800050EA010208BF704730B54FF000050AE09E
:1004900050EA010208BF704730B511F0004502D59F
:1004A000404261EB41014FF4806404F132045FEAA1
:1004B000915C3FF4D8AE4FF003025FEADC0C18BF4A
:1004C00003325FEADC0C18BF033202EBDC02C2F13C
:1004D000200300FA03FC20FA02F001FA03FE40EACE
:1004E0000E0021FA02F11444BDE600BF70B54FF0D2
:1004F000FF0C4CF4E06C1CEA11541DBF1CEA1355B0
:1005000094EA0C0F95EA0C0F00F0DEF82C4481EA17
:10051000030621EA4C5123EA4C5350EA013518BF37
:1005200052EA033541F4801143F4801338D0A0FB24
:1005300002CE4FF00005E1FB02E506F00042E0FBD1
:1005400003E54FF00006E1FB03569CF0000F18BFD7
:100550004EF0010EA4F1FF04B6F5007F64F540747F
:1005600004D25FEA4E0E6D4146EB060642EAC62112
:1005700041EA55514FEAC52040EA5E504FEACE2E7F
:10058000B4F1FD0C88BFBCF5E06F1ED8BEF1004F82
:1005900008BF5FEA500E50F1000041EB045170BDFE
:1005A00006F0004646EA010140EA020081EA030142
:1005B000B4EB5C04C2BFD4EB0C0541EA045170BD3E
:1005C00041F480114FF0000E013C00F3AB8014F1B8
:1005D000360FDEBF002001F0004170BDC4F1000401
:1005E000203C35DA0C341BDC04F11404C4F1200582
:1005F00000FA05F320FA04F001FA05F240EA0200DD
:1006000001F0004221F0004110EBD37021FA04F612
:1006100042EB06015EEA430E08BF20EAD37070BDCC
:10062000C4F10C04C4F1200500FA04F320FA05F02B
:1006300001FA04F240EA020001F0004110EBD3702D
:1006400041F100015EEA430E08BF20EAD37070BD9D
:10065000C4F1200500FA05F24EEA020E20FA04F376
:1006600001FA05F243EA020321FA04F001F0004125
:1006700021FA04F220EA020000EBD3705EEA430E96
:1006800008BF20EAD37070BD94F0000F0FD101F0C5
:100690000046400041EB010111F4801F08BF013CFE
:1006A000F7D041EA060195F0000F18BF704703F03C
:1006B0000046520043EB030313F4801F08BF013DC3
:1006C000F7D043EA0603704794EA0C0F0CEA13557F
:1006D00018BF95EA0C0F0CD050EA410618BF52EA39
:1006E0004306D1D181EA030101F000414FF000003F
:1006F00070BD50EA410606BF1046194652EA43064D
:1007000019D094EA0C0F02D150EA013613D195EAC0
:100710000C0F05D152EA03361CBF104619460AD108
:1007200081EA030101F0004141F0FE4141F4700112
:100730004FF0000070BD41F0FE4141F4780170BD02
:1007400070B54FF0FF0C4CF4E06C1CEA11541DBF67
:100750001CEA135594EA0C0F95EA0C0F00F0A7F869
:10076000A4EB050481EA030E52EA03354FEA013196
:1007700000F088804FEA03334FF0805545EA1313A9
:1007800043EA12634FEA022245EA111545EA106571
:100790004FEA00260EF000419D4208BF964244F108
:1007A000FD0404F5407402D25B084FEA3202B61A27
:1007B00065EB03055B084FEA32024FF480104FF4FB
:1007C000002CB6EB020E75EB030E22BFB61A75466F
:1007D00040EA0C005B084FEA3202B6EB020E75EB02
:1007E000030E22BFB61A754640EA5C005B084FEA6A
:1007F0003202B6EB020E75EB030E22BFB61A754637
:1008000040EA9C005B084FEA3202B6EB020E75EB41
:10081000030E22BFB61A754640EADC0055EA060E02
:1008200018D04FEA051545EA16754FEA06164FEA45
:10083000C30343EA52734FEAC2025FEA1C1CC0D1F1
:1008400011F4801F0BD141EA00014FF000004FF07E
:10085000004CB6E711F4801F04BF01430020B4F13F
:10086000FD0C88BFBCF5E06F3FF6AFAEB5EB030CF7
:1008700004BFB6EB020C5FEA500C50F1000041EBF4
:10088000045170BD0EF0004E4EEA113114EB5C04C1
:10089000C2BFD4EB0C0541EA045170BD41F4801194
:1008A0004FF0000E013C90E645EA060E8DE60CEA9C
:1008B000135594EA0C0F08BF95EA0C0F3FF43BAFB9
:1008C00094EA0C0F0AD150EA01347FF434AF95EA70
:1008D0000C0F7FF425AF104619462CE795EA0C0F54
:1008E00006D152EA03353FF4FDAE1046194622E721
:1008F00050EA410618BF52EA43067FF4C5AE50EAFB
:1009000041047FF40DAF52EA43057FF4EBAE12E7EA
:100910004FF0FF3C06E000BF4FF0010C02E000BFCB
:100920004FF0010C4DF804CD4FEA410C7FEA6C5CAE
:100930004FEA430C18BF7FEA6C5C1BD001B050EA51
:10094000410C0CBF52EA430C91EA030F02BF90EA3C
:10095000020F0020704710F1000F91EA030F58BFFB
:10096000994208BF90422CBFD8176FEAE37040F05D
:10097000010070474FEA410C7FEA6C5C02D150EAFB
:10098000013C07D14FEA430C7FEA6C5CD6D152EAB6
:10099000033CD3D05DF8040B704700BF844610467B
:1009A00062468C461946634600E000BF01B5FFF77A
:1009B000B7FF002848BF10F1000F01BD4DF808ED4A
:1009C000FFF7F4FF0CBF012000205DF808FB00BF1B
:1009D0004DF808EDFFF7EAFF34BF012000205DF875
:1009E00008FB00BF4DF808EDFFF7E0FF94BF0120C2
:1009F00000205DF808FB00BF4DF808EDFFF7CEFFC3
:100A000094BF012000205DF808FB00BF4DF808ED01
:100A1000FFF7C4FF34BF012000205DF808FB00BFD2
:100A20004FEA410C7FEA6C5C02D150EA013C0AD1EA
:100A30004FEA430C7FEA6C5C02D152EA033C02D1DC
:100A40004FF0000070474FF0010070474FEA41023D
:100A500012F5001215D211D56FF47873B3EB625210
:100A600012D94FEAC12343F0004343EA505311F037
:100A7000004F23FA02F018BF404270474FF00000C9
:100A8000704750EA013005D111F0004008BF6FF007
:100A9000004070474FF00000704700BF80F00040FA
:100AA00002E000BF81F0004142001FBF5FEA410346
:100AB00092EA030F7FEA226C7FEA236C6AD04FEA46
:100AC0001262D2EB1363C1BFD2184140484041408B
:100AD000B8BF5B42192B88BF704710F0004F40F43D
:100AE000000020F07F4018BF404211F0004F41F459
:100AF000000121F07F4118BF494292EA030F3FD025
:100B0000A2F1010241FA03FC10EB0C00C3F1200337
:100B100001FA03F100F0004302D5494260EB4000C6
:100B2000B0F5000F13D3B0F1807F06D340084FEA31
:100B3000310102F10102FE2A51D2B1F1004F40EB26
:100B4000C25008BF20F0010040EA0300704749008E
:100B500040EB0000013A28BFB0F5000FEDD2B0FA2B
:100B600080FCACF1080CB2EB0C0200FA0CF0AABF4E
:100B700000EBC25052421843BCBFD04018437047EC
:100B800092F0000F81F4000106BF80F400000132F2
:100B9000013BB5E74FEA41037FEA226C18BF7FEAC9
:100BA000236C21D092EA030F04D092F0000F08BF0B
:100BB0000846704790EA010F1CBF0020704712F0F2
:100BC0007F4F04D1400028BF40F00040704712F131
:100BD00000723CBF00F50000704700F0004343F096
:100BE000FE4040F4000070477FEA226216BF0846CC
:100BF0007FEA23630146420206BF5FEA412390EA8F
:100C0000010F40F4800070474FF0000304E000BF84
:100C100010F0004348BF40425FEA000C08BF704735
:100C200043F0964301464FF000001CE050EA0102F9
:100C300008BF70474FF000030AE000BF50EA01020E
:100C400008BF704711F0004302D5404261EB4101FB
:100C50005FEA010C02BF84460146002043F0B64320
:100C600008BFA3F18053A3F50003BCFA8CF2083A45
:100C7000A3EBC25310DB01FA02FC634400FA02FC4E
:100C8000C2F12002BCF1004F20FA02F243EB020055
:100C900008BF20F00100704702F1200201FA02FCB7
:100CA000C2F1200250EA4C0021FA02F243EB0200AA
:100CB00008BF20EADC7070474FF0FF0C1CEAD052EE
:100CC0001EBF1CEAD15392EA0C0F93EA0C0F6FD0AF
:100CD0001A4480EA010C400218BF5FEA41211ED08D
:100CE0004FF0006343EA501043EA5111A0FB013179
:100CF0000CF00040B1F5000F3EBF490041EAD3714E
:100D00005B0040EA010062F17F02FD2A1DD8B3F1C9
:100D1000004F40EBC25008BF20F00100704790F038
:100D2000000F0CF0004C08BF49024CEA502040EA8A
:100D300051207F3AC2BFD2F1FF0340EAC250704750
:100D400040F400004FF00003013A5DDC12F1190F8E
:100D5000DCBF00F000407047C2F10002410021FA00
:100D600002F1C2F1200200FA02FC5FEA310040F118
:100D7000000053EA4C0308BF20EADC70704792F091
:100D8000000F00F0004C02BF400010F4000F013AC9
:100D9000F9D040EA0C0093F0000F01F0004C02BFC4
:100DA000490011F4000F013BF9D041EA0C018FE733
:100DB0000CEAD15392EA0C0F18BF93EA0C0F0AD039
:100DC00030F0004C18BF31F0004CD8D180EA01005F
:100DD00000F00040704790F0000F17BF90F0004FF8
:100DE000084691F0000F91F0004F14D092EA0C0FDA
:100DF00001D142020FD193EA0C0F03D14B0218BF6D
:100E0000084608D180EA010000F0004040F0FE40B2
:100E100040F40000704740F0FE4040F4400070474E
:100E20004FF0FF0C1CEAD0521EBF1CEAD15392EACD
:100E30000C0F93EA0C0F69D0A2EB030280EA010CBD
:100E400049024FEA402037D04FF0805343EA111156
:100E500043EA10130CF000408B4238BF5B0042F1B4
:100E60007D024FF4000C8B4224BF5B1A40EA0C0059
:100E7000B3EB510F24BFA3EB510340EA5C00B3EB8B
:100E8000910F24BFA3EB910340EA9C00B3EBD10F79
:100E900024BFA3EBD10340EADC001B0118BF5FEACB
:100EA0001C1CE0D1FD2A3FF650AF8B4240EBC250F4
:100EB00008BF20F0010070470CF0004C4CEA5020B5
:100EC0007F32C2BFD2F1FF0340EAC250704740F404
:100ED00000004FF00003013A37E792F0000F00F0F6
:100EE000004C02BF400010F4000F013AF9D040EA74
:100EF0000C0093F0000F01F0004C02BF490011F408
:100F0000000F013BF9D041EA0C0195E70CEAD153FF
:100F100092EA0C0F08D142027FF47DAF93EA0C0FE6
:100F20007FF470AF084676E793EA0C0F04D14B02CA
:100F30003FF44CAF08466EE730F0004C18BF31F07C
:100F4000004CCAD130F000427FF45CAF31F0004376
:100F50007FF43CAF5FE700BF4FF0FF3C06E000BF0F
:100F60004FF0010C02E000BF4FF0010C4DF804CD32
:100F70004FEA40024FEA41037FEA226C18BF7FEA42
:100F8000236C11D001B052EA530C18BF90EA010F44
:100F900058BFB2EB030088BFC81738BF6FEAE170D3
:100FA00018BF40F0010070477FEA226C02D15FEA6F
:100FB000402C05D17FEA236CE4D15FEA412CE1D0DB
:100FC0005DF8040B704700BF844608466146FFE7A2
:100FD0000FB5FFF7C9FF002848BF10F1000F0FBD84
:100FE0004DF808EDFFF7F4FF0CBF012000205DF87D
:100FF00008FB00BF4DF808EDFFF7EAFF34BF012002
:1010000000205DF808FB00BF4DF808EDFFF7E0FF9A
:1010100094BF012000205DF808FB00BF4DF808EDEB
:10102000FFF7D2FF94BF012000205DF808FB00BF4E
:101030004DF808EDFFF7C8FF34BF012000205DF830
:1010400008FB00BF4FEA4002B2F1FE4F0FD34FF052
:101050009E03B3EB12620DD94FEA002343F0004325
:1010600010F0004F23FA02F018BF404270474FF0D3
:101070000000704712F1610F01D1420205D110F05A
:10108000004008BF6FF0004070474FF0000070470D
:1010900080B483B000AF78600B46FB70FB78002B08
:1010A00004D07B6803221A7001230CE07B681B7854
:1010B000002B07D07B681B78013BDAB27B681A7083
:1010C000012300E0002318460C37BD4680BC704762
:1010D00080B582B000AF78601C220021786805F0EE
:1010E000BCFE7B68074A1A607B68064A5A607B68C8
:1010F000044A9A607B68044ADA6000BF0837BD463C
:1011000080BD00BF0000C843CDCCC742B0B586B09B
:1011100000AF78603960002002F050FA02467B6828
:101120001A60012002F04AFA02467B685A600220E7
:1011300002F044FA02467B689A603B689B689F49CC
:101140001846FFF76DFE03467B617B681B689C4970
:101150001846FFF765FE03463B614FF07C51786906
:10116000FFF766FF0346002B2DD07B681B6895496F
:101170001846FFF73FFF0346002B24D079693869F2
:10118000FFF74EFE03461A467B68DA607B68DB6831
:101190004FF000011846FFF72DFF0346002B02D049
:1011A0004FF000030CE07B68DB6887491846FFF7C7
:1011B0003FFF0346002B01D0834B01E07B68DB68D7
:1011C0007A68D36002E07B687F4ADA607B681B68DC
:1011D0007E491846FFF70EFF0346002B09D17B68B6
:1011E000DB684FF07F511846FFF704FF0346002BE2
:1011F00001D0012300E00023FB737B681B68744966
:101200001846FFF7F7FE0346002B08D17B68DB6822
:1012100070491846FFF7EEFE0346002B01D001236C
:1012200000E00023BB737B681733FA7B1146184636
:10123000FFF72EFF0346002B06D07B6800221A76AC
:101240007B6802221A7410E07B681833BA7B11465F
:101250001846FFF71DFF0346002B03D07B680122D1
:101260001A7402E07B6800221A747B685B685A4932
:101270001846FFF7BFFE0346002B0AD03B689B6869
:1012800052491846FFF7D4FE0346002B01D0012334
:1012900000E000237B737B689B684F491846FFF78B
:1012A000A9FE0346002B0AD03B689B6847491846B5
:1012B000FFF7BEFE0346002B01D0012300E0002310
:1012C0003B737B6819337A7B11461846FFF7E0FEC3
:1012D00003461A467B685A747B681A333A7B114678
:1012E0001846FFF7D5FE03461A467B689A747B685A
:1012F00003F11B043B689B680122154637491846D9
:10130000FFF796FE0346002B01D100231D46EBB2EA
:1013100019462046FFF7BCFE03461A467B68DA747E
:101320007B681B7C022B03D17B6803229A751AE031
:101330007B681B7C012B03D17B6802229A7512E02B
:101340007B685B7C002B07D17B689B7C002B03D1E7
:101350007B68DB7C002B03D07B6801229A7502E05E
:101360007B6800229A757B681B7C002B14BF0123CD
:101370000023DBB21A464FF48071194803F0C1F81C
:101380007B685B7C002B14BF01230023DBB21A4671
:101390004FF40071124803F0B4F87B689B7C002B7B
:1013A00014BF01230023DBB21A464FF480610C48BE
:1013B00003F0A7F800BF1837BD46B0BD66666640AB
:1013C0000000C84200004843CDCCC7420000A04105
:1013D00000004842000040400000F0410000F042A0
:1013E000000C014080B582B000AF78602822002157
:1013F000786805F032FD7B68094A5A617B680122F2
:1014000083F824207B68074A1A617B68064A9A6041
:101410007B68002283F8252000BF0837BD4680BDC9
:101420000000C8420000C8410000A04180B586B05D
:1014300000AF786007F10C0300221A605A609A60CE
:101440007B68FB6001233B6106237B6107F10C0392
:1014500019460A4802F018FC084802F055FA4FF005
:10146000FF31064802F0FEFA044802F001FC034690
:101470009BB218461837BD4680BD00BF4C02002005
:1014800080B582B000AF78600020FFF7CFFF034641
:101490001A464C4B1A600120FFF7C8FF03461A4654
:1014A000484B5A600320FFF7C1FF03461A46454BDD
:1014B000DA60444B1B681846FFF7A6FB0346424917
:1014C0001846FFF7ADFC034640491846FFF7F4FB0A
:1014D00003463E491846FFF7ABFD0346002B01D0FB
:1014E0003A4A10E0374B1B681846FFF78DFB03465E
:1014F00035491846FFF794FC034634491846FFF770
:10150000DBFB03461A467B681A602E4B5B68184665
:10151000FFF77AFB03462C491846FFF781FC034688
:101520002A491846FFF7C8FB034628491846FFF723
:101530007FFD0346002B01D0244A10E0214B5B685D
:101540001846FFF761FB03461F491846FFF768FC82
:1015500003461E491846FFF7AFFB03461A467B6851
:101560005A60184BDB681846FFF74EFB03461649D6
:101570001846FFF755FC034615491846FFF79CFB34
:10158000034613491846FFF753FD0346002B01D0CD
:101590000F4A10E00B4BDB681846FFF735FB03469C
:1015A00009491846FFF73CFC034609491846FFF76E
:1015B00083FB03461A467B681A6100BF0837BD46A5
:1015C00080BD00BFF001002000F07F450000C84250
:1015D0000000F04290B591B000AF786039607B6850
:1015E00093F82530042B4DD801A252F823F000BF08
:1015F00005160008351600083F1600085D1600089D
:101600007B1600087B684FF00002DA607B684FF0C1
:1016100000029A617B681B684FF080411846FFF713
:1016200007FD0346002B00D1C1E17B68012283F84E
:101630002520BCE17B68022283F82520B7E17B6886
:101640005B6897491846FFF7F3FC0346002B00D16F
:1016500018E07B68032283F8252013E07B685B6831
:101660008F491846FFF7D0FC0346002B00D109E054
:101670007B68022283F8252004E07B684FF000029B
:10168000DA6094E17B6893F824301A46854B53F86E
:101690002230FB637B681B6883491846FFF7C0FB59
:1016A000034682491846FFF707FB0346F96B1846C5
:1016B000FFF702FB03461A467B68DA607B685B68CB
:1016C00077491846FFF7B4FC0346002B1AD07B6815
:1016D0005B6877491846FFF7EFFA03461A467B68BE
:1016E0009A617B689B6970491846FFF799FB03462E
:1016F00083F000436F491846FFF7DEFA03461A46A7
:101700007B68DA607B689B686B491846FFF788FB4B
:101710000346BB63BB6B19461846FFF7C5F9034682
:101720007B637B68DB68796B1846FFF7BBF9034680
:1017300062491846FFF774FB03463B637B689C686D
:101740003968386BFFF7B8FA03465B491846FFF76C
:10175000B3FA034619462046FFF7A6F903464FF0B1
:1017600000011846FFF746FC0346002B02D04FF05D
:1017700000032AE07B689C683968386BFFF79CFAA5
:1017800003464D491846FFF797FA03461946204687
:10179000FFF78AF903464A491846FFF749FC034612
:1017A000002B01D0464B10E07B689C683968386B91
:1017B000FFF782FA034640491846FFF77DFA0346D1
:1017C00019462046FFF770F903467A6893607B68F4
:1017D0009B6839491846FFF723FB0346FB627B6889
:1017E000DB68F96A1846FFF767FA03463549184679
:1017F000FFF716FB0346BB627B68DB682B49184684
:10180000FFF70EFB03467B62796A786AFFF754FAAA
:10181000034623491846FFF74FFA03463B62396AED
:10182000B86AFFF741F903461A467B68DA617B68BC
:10183000DB6939681846FFF73FFA03462249184624
:10184000FFF7EEFA034618491846FFF735FA034644
:101850001B491846FFF730FA0346FB617B685B695A
:10186000F9691846FFF71EF903464FF000011846C4
:10187000FFF7C0FB0346002B02D04FF000032CE023
:101880007B685B69F9691846FFF70CF9034606495E
:101890001846FFF7CDFB0346002B17D0024B1CE088
:1018A0000000A0406C9F00080000C84200001643E2
:1018B0003333333F0000A042666666400000964224
:1018C0000000FA4300007A4400F052487B685B69EC
:1018D000F9691846FFF7E6F803467A6853617B68B2
:1018E00093F82430002B01D1324B00E0324BBB6126
:1018F0007B685B6931491846FFF792FA0346304925
:101900001846FFF7D9F903462E491846FFF7D4F9D0
:1019100003467B61B9697869FFF782FA03461A4684
:101920007B681A627B68DB6923F00043264918460E
:10193000FFF7C2F903463B617B681B6923491846E0
:10194000FFF7B0F8034622491846FFF7B5F90346FA
:10195000FB607B681C69F9683869FFF7A3F80346E8
:1019600039681846FFF7A8F9034619462046FFF7DD
:101970009BF803461A467B681A617B681B6913490A
:101980001846FFF737FB0346002B01D00F4B0CE046
:101990007B681B690F491846FFF74AFB0346002B7B
:1019A00001D00C4B01E07B681B697A6813614437F6
:1019B000BD4690BD00006041000090410000C8425B
:1019C0000000704200007A44CDCC4C3D0000C8417C
:1019D0000AD7233C0000024380B483B000AF786094
:1019E0000B46FB70FB78022B03D87B68FA7883F8F0
:1019F000242000BF0C37BD4680BC704780B582B044
:101A000000AF786039604FF000013868FFF7F2FAF4
:101A10000346002B02D04FF0000309E00749386865
:101A2000FFF706FB0346002B01D0044B00E03B68A8
:101A30007A68936000BF0837BD4680BD0000FA4356
:101A400080B582B000AF786039604FF0000138682F
:101A5000FFF7D0FA0346002B02D04FF0000309E055
:101A600007493868FFF7E4FA0346002B01D0044B1E
:101A700000E03B687A68536100BF0837BD4680BD0F
:101A80000000C84280B582B000AF786039604FF086
:101A900000013868FFF7AEFA0346002B02D04FF082
:101AA000000309E007493868FFF7C2FA0346002B34
:101AB00001D0044B00E03B687A68136100BF08372F
:101AC000BD4680BD0000024380B483B000AF7860A3
:101AD0007B6800221A707B6800225A7000BF0C37A6
:101AE000BD4680BC7047000080B586B000AFF8608E
:101AF000B9607A600023FB75BB681B6926491846EC
:101B0000FFF78CFA0346002B03D0FB7D43F0010363
:101B1000FB75BB685B694FF080411846FFF774FAAC
:101B20000346002B03D0FB7D43F00203FB757B686B
:101B30001B7C022B09D1002001F050FD0346002B35
:101B400003D0FB7D43F00403FB75FB68FA7D1A703C
:101B5000FB681B78002B0DD0FB6801225A70BB6814
:101B6000042283F8252001224FF400610B4802F083
:101B7000C8FC0CE0FB6800225A70BB68022283F8A4
:101B8000252000224FF40061044802F0BAFC00BF97
:101B90001837BD4680BD00BF0000B442000C0140B4
:101BA00080B582B000AF786039607B6800221A701F
:101BB0007B6800225A703B68002283F825203B682E
:101BC0004FF000029A603B684FF00002DA603B6819
:101BD000074A1A613B68074A5A6100224FF40061C4
:101BE000054802F08EFC00BF0837BD4680BD00BF2F
:101BF0000000C8410000A042000C014080B483B046
:101C000000AF78607B681B68094A934202D1094B98
:101C100001221A707B681B68074A934202D1074B66
:101C200001221A7000BF0C37BD4680BC704700BF50
:101C3000002C014046020020000400404702002022
:101C400080B582B000AF01F001FD00F0AFF900F007
:101C5000ABFB00F007FA00F07DFB00F041FA00F06A
:101C6000DFFA00F029FB304803F030FA2F4803F088
:101C70002DFA2F4803F02AFA01222E492E4804F0AB
:101C800095F92E48FFF7AEFB01F072FB2C48FFF7E9
:101C90001FFA2C48FFF718FF2A4B294A27492648E4
:101CA00001F0ACFA0220FFF7C1FB03461846FEF72D
:101CB000ABFF03467B6079682048FFF7C1FE224BEB
:101CC0001B78DBB2002B18D01F4B00221A701B4868
:101CD000FFF7D6FB1D491948FFF77CFC1C4B1B780E
:101CE0000133DAB21A4B1A70194B1B78092B04D93D
:101CF000174B00221A7000F02FF8164B1B78DBB23E
:101D0000012BDCD1134B00221A7001F03BFC0B4974
:101D10000B48FFF7FBF90A4A08490A48FFF7E4FEB7
:101D200001F0A2FACBE700BF7C020020C402002031
:101D30000C03002048020020540300200002002071
:101D40002802002044020020460200200AD7233C3B
:101D50004902002047020020B0B5C4B008AF8B4B49
:101D60009B681846FFF76EF90346C7F8EC30874BBF
:101D70009B6887491846FEF79FFF03461846FFF702
:101D800061F90246834B83FB02139910D317C91ADA
:101D90000B469B000B445B00D31AC7F8E8307B4B23
:101DA0005B691846FFF74EF90346C7F8E430774BF6
:101DB0005B6977491846FEF77FFF03461846FFF731
:101DC00041F90246734B83FB02139910D317C91ACA
:101DD0000B469B000B445B00D31AC7F8E0306B4BFB
:101DE0001B691846FFF72EF90346C7F8DC30674B2E
:101DF0001B6967491846FEF75FFF03461846FFF761
:101E000021F90246634B83FB02139910D317C91AB9
:101E10000B469B000B445B00D31AC7F8D8305B4BD2
:101E2000DB681846FFF70EF90346C7F8D430574B66
:101E30001B681846FFF706F90346C7F8D030534B26
:101E40005B681846FFF7FEF80346C7F8CC304F4BE7
:101E50001B6A1846FFF7F6F80346C7F8C8304E4B22
:101E6000DB681846FFF7EEF80346C7F8C4304A4B64
:101E7000DB6847491846FEF71FFF03461846FFF781
:101E8000E1F80246434B83FB02139910D317C91A9A
:101E90000B469B000B445B00D31AC7F8C0303E4B87
:101EA0001B681846FFF7CEF80346C7F8BC303A4B1C
:101EB0005B681846FFF7C6F80346C7F8B830364BDC
:101EC0009B681846FFF7BEF80346C7F8B43038469B
:101ED000D7F8CC300793D7F8D0300693D7F8C8306E
:101EE0000593D7F8D8300493D7F8DC300393D7F8AC
:101EF000D4300293D7F8E0300193D7F8E430009360
:101F0000D7F8E830D7F8EC20244904F013FF3B461B
:101F10001846FEF727F903469AB23946642320484B
:101F200003F0B9FF1C4B1B7C1A461B4B5B7C19460C
:101F3000194B9B7C1C46184B9B7D1D46194B1B78EF
:101F4000384607930695059404910392D7F8C0305C
:101F50000293D7F8C4300193D7F8B4300093D7F880
:101F6000B830D7F8BC20104904F0E4FE3B461846D0
:101F7000FEF7F8F803469AB239466423084803F09E
:101F80008AFF00BFF037BD46B0BD00BF0002002091
:101F9000000020416766666628020020109900084C
:101FA00054030020440200204C99000880B594B0EE
:101FB00000AF07F1280328220021184604F04DFF46
:101FC00007F1140300221A605A609A60DA601A61FD
:101FD0003B1D00221A605A609A60DA600123BB62DE
:101FE0004FF48033FB6200233B630123BB63022376
:101FF0007B644FF48033BB644FF4E013FB6407F160
:102000002803184602F096FA0346002B01D000F090
:1020100045FA0F237B610223BB610023FB614FF470
:1020200080633B6200237B6207F1140302211846A0
:1020300002F002FD0346002B01D000F02FFA02232C
:102040007B604FF40043FB603B1D184602F082FEAC
:102050000346002B01D000F021FA00BF5037BD46E7
:1020600080BD000080B584B000AF3B1D00221A6027
:102070005A609A60184B194A1A60174B00229A60EE
:10208000154B00221A73144B00221A75124B4FF491
:102090006022DA61104B00225A600F4B01221A6154
:1020A0000D4801F059FB0346002B01D000F0F6F972
:1020B00000237B600123BB600023FB603B1D1946AE
:1020C000054801F0E1FD0346002B01D000F0E6F9E0
:1020D00000BF1037BD4680BD4C02002000240140E7
:1020E00080B596B000AF07F1480300221A605A602D
:1020F0009A60DA6007F1400300221A605A6007F123
:10210000240300221A605A609A60DA601A615A61E8
:102110009A613B1D20220021184604F09EFE3E4B92
:102120003E4A1A603C4B47225A603B4B00229A6061
:10213000394B42F20F72DA60374B00221A61364B8C
:1021400000225A61344B00229A61334802F06EFF3C
:102150000346002B01D000F0A1F94FF48053BB647B
:1021600007F1480319462C4803F00CFA0346002BEC
:1021700001D000F093F9284802F0FAFF0346002B43
:1021800001D000F08BF900233B6400237B6407F14E
:1021900040031946204803F06DFD0346002B01D093
:1021A00000F07CF960237B620023BB620023FB62AA
:1021B00000233B6300237B630023BB630023FB639B
:1021C00007F1240300221946134803F019F90346C6
:1021D000002B01D000F062F900237B600023BB607C
:1021E0000023FB6000233B6100237B614FF400531D
:1021F000BB6100233B623B1D1946074803F098FD75
:102200000346002B01D000F049F9034800F022FA00
:1022100000BF5837BD4680BD7C020020002C014025
:1022200080B586B000AF07F1080300221A605A603B
:102230009A60DA603B4600221A605A601D4B4FF0EC
:1022400080421A601B4B47225A601A4B00229A6048
:10225000184B4FF6FF72DA60164B00221A61154BCD
:1022600000229A61134802F0E1FE0346002B01D0E0
:1022700000F014F94FF48053BB6007F108031946CE
:102280000C4803F07FF90346002B01D000F006F95B
:1022900000233B6000237B603B461946054803F062
:1022A000E9FC0346002B01D000F0F8F800BF183716
:1022B000BD4680BD0C03002080B586B000AF07F19D
:1022C000080300221A605A609A60DA603B460022D6
:1022D0001A605A601D4B1E4A1A601C4B41F61F4281
:1022E0005A601A4B00229A60184B40F2E732DA60CB
:1022F000164B00221A61154B00229A61134802F016
:1023000095FE0346002B01D000F0C8F84FF480532F
:10231000BB6007F1080319460C4803F033F9034684
:10232000002B01D000F0BAF800233B6000237B6053
:102330003B461946054803F09DFC0346002B01D09F
:1023400000F0ACF800BF1837BD4680BDC4020020C5
:102350000004004080B500AF114B124A1A60104BC8
:102360004FF4E1325A600E4B00229A600C4B00226F
:10237000DA600B4B00221A61094B0C225A61084BA0
:1023800000229A61064B0022DA61054803F033FD12
:102390000346002B01D000F081F800BF80BD00BFD4
:1023A000540300200038014080B588B000AF07F129
:1023B000100300221A605A609A60DA60344B9B69FD
:1023C000334A43F010039361314B9B6903F01003D0
:1023D000FB60FB682E4B9B692D4A43F02003936101
:1023E0002B4B9B6903F02003BB60BB68284B9B69A8
:1023F000274A43F004039361254B9B6903F00403D0
:102400007B607B68224B9B69214A43F00803936100
:102410001F4B9B6903F008033B603B6800224FF4AD
:1024200000511C4802F06DF8002240F615711A4860
:1024300002F067F84FF400533B6101237B610223F4
:10244000BB610223FB6107F110031946114801F03B
:10245000BDFE40F615733B6101237B610023BB6128
:102460000223FB6107F1100319460B4801F0AEFE91
:102470002A233B6100237B610023BB6107F110032A
:102480001946054801F0A2FE00BF2037BD4680BDB9
:102490000010024000100140000C014080B400AF69
:1024A00072B600BF00BFFDE780B485B000AF154B2A
:1024B0009B69144A43F001039361124B9B6903F03B
:1024C0000103BB60BB680F4BDB690E4A43F08053CE
:1024D000D3610C4BDB6903F080537B607B680A4B54
:1024E0005B68FB60FB6823F0E063FB60FB6843F024
:1024F0000073FB60044AFB68536000BF1437BD469D
:1025000080BC7047001002400000014080B588B0D8
:1025100000AF786007F1100300221A605A609A60D9
:10252000DA607B681B68144A934221D1134B9B6984
:10253000124A43F400739361104B9B6903F40073D8
:10254000FB60FB680D4B9B690C4A43F004039361ED
:102550000A4B9B6903F00403BB60BB680F233B611C
:1025600003237B6107F110031946054801F02EFE95
:1025700000BF2037BD4680BD00240140001002404E
:102580000008014080B586B000AF78607B681B68AA
:102590002C4A934214D12C4B9B692B4A43F4006381
:1025A0009361294B9B6903F400637B617B69002283
:1025B0000021192001F0D3FD192001F0ECFD3CE0D1
:1025C0007B681B68B3F1804F0CD11F4BDB691E4A3F
:1025D00043F00103D3611C4BDB6903F001033B6152
:1025E0003B692AE07B681B68184A934214D1164B5A
:1025F000DB69154A43F00203D361134BDB6903F037
:102600000203FB60FB68002200211D2001F0A7FDF2
:102610001D2001F0C0FD10E07B681B680C4A93424E
:102620000BD1094BDB69084A43F00403D361064B25
:10263000DB6903F00403BB60BB6800BF1837BD460D
:1026400080BD00BF002C014000100240000400408B
:102650000008004080B588B000AF786007F1100333
:1026600000221A605A609A60DA607B681B681F4A11
:10267000934219D11E4B9B691D4A43F00403936199
:102680001B4B9B6903F00403FB60FB684FF48073F2
:102690003B6102237B610223FB6107F110031946B2
:1026A000144801F093FD1CE07B681B68124A9342BA
:1026B00017D10F4B9B690E4A43F0080393610C4BF3
:1026C0009B6903F00803BB60BB6840233B610223A6
:1026D0007B610223FB6107F110031946074801F0F3
:1026E00075FD00BF2037BD4680BD00BF002C0140F6
:1026F000001002400008014000080040000C0140AA
:1027000080B588B000AF786007F1100300221A602E
:102710005A609A60DA607B681B681C4A934231D128
:102720001B4B9B691A4A43F480439361184B9B6986
:1027300003F48043FB60FB68154B9B69144A43F02C
:1027400004039361124B9B6903F00403BB60BB68F5
:102750004FF400733B6102237B610323FB6107F1AC
:10276000100319460B4801F031FD4FF480633B61C3
:1027700000237B610023BB6107F110031946054864
:1027800001F024FD00BF2037BD4680BD0038014068
:10279000001002400008014080B400AF00BFFDE718
:1027A00080B400AF00BFFDE780B400AF00BFFDE71D
:1027B00080B400AF00BFFDE780B400AF00BFFDE70D
:1027C00080B400AF00BFBD4680BC704780B400AF8E
:1027D00000BFBD4680BC704780B400AF00BFBD469F
:1027E00080BC704780B500AF00F076FF00BF80BDB1
:1027F00080B500AF024802F013FD00BF80BD00BFEE
:102800007C02002080B500AF024802F009FD00BF45
:1028100080BD00BFC402002080B400AF0123184671
:10282000BD4680BC704780B582B000AF786039602B
:1028300004F066FB034616221A604FF0FF33184679
:102840000837BD4680BD80B582B000AF78604FF0DC
:10285000FF317868FFF7E7FF00BFFDE780B586B07E
:1028600000AFF860B9607A6000237B610AE0AFF3E3
:1028700000800146BB685A1CBA60CAB21A707B69F4
:1028800001337B617A697B689A42F0DB7B6818468A
:102890001837BD4680BD80B586B000AFF860B9601E
:1028A0007A6000237B6109E0BB685A1CBA601B7820
:1028B0001846AFF300807B6901337B617A697B68DE
:1028C0009A42F1DB7B6818461837BD4680BD80B45C
:1028D00083B000AF78604FF0FF3318460C37BD4629
:1028E00080BC704780B483B000AF786039603B68CB
:1028F0004FF400525A60002318460C37BD4680BC86
:10290000704780B483B000AF7860012318460C375D
:10291000BD4680BC704780B485B000AFF860B96038
:102920007A60002318461437BD4680BC704700000B
:1029300080B586B000AF7860144A154BD31A7B611E
:102940007B693B61134B1B68002B02D1114B124A70
:102950001A60104B1A687B6813443A699A4207D28E
:1029600004F0CEFA03460C221A604FF0FF3309E060
:10297000084B1B68FB60074B1A687B681344054AC9
:102980001360FB6818461837BD4680BD0050002014
:10299000000400009C030020E805002080B400AF84
:1029A00000BFBD4680BC704780B400AFBFF34F8FFF
:1029B00000BF064BDB6803F4E0620449044B134399
:1029C000CB60BFF34F8F00BF00BFFDE700ED00E01D
:1029D0000400FA0580B483B000AF7860154BB3F8FB
:1029E0008430002B01D100231FE0124BB3F882305A
:1029F0001A46104B9A5C7B681A700E4BB3F8823003
:102A000001335A4203F07F0302F07F0258BF534262
:102A10009AB2084BA3F88220064BB3F88430013BEE
:102A20009AB2044BA3F88420012318460C37BD4604
:102A300080BC7047B003002090B583B000AF7860D1
:102A4000074B1C687868FDF78DFB03469AB2C823D4
:102A50007968204603F01FFA00BF0C37BD4690BDD1
:102A6000A003002090B5C3B000AFC94B1B689B68A2
:102A70001846FEF7E7FA0346C7F80431C44B1B6853
:102A80009B68C4491846FEF717F903461846FEF737
:102A9000D9FA0246C04B83FB02139910D317C91A07
:102AA0000B469B000B445B00D31AC7F80031B84BB0
:102AB0001B685B691846FEF7C5FA0346C7F8FC3089
:102AC000B34B1B685B69B3491846FEF7F5F803463C
:102AD0001846FEF7B7FA0246AF4B83FB0213991074
:102AE000D317C91A0B469B000B445B00D31AC7F8D7
:102AF000F830A74B1B681B691846FEF7A3FA03467C
:102B0000C7F8F430A24B1B681B69A2491846FEF7B0
:102B1000D3F803461846FEF795FA02469E4B83FB10
:102B200002139910D317C91A0B469B000B445B0084
:102B3000D31AC7F8F030964B1B68DB681846FEF7CF
:102B400081FA0346C7F8EC30914B1B681B6A1846A4
:102B5000FEF778FA0346C7F8E830904A07F1140305
:102B600007CA83E807008E48FFF766FF07F12000D9
:102B7000D7F80031D7F804218A4904F0DBF807F1CF
:102B800020031846FFF758FF07F12000D7F8F83068
:102B9000D7F8FC20844904F0CDF807F1200318464B
:102BA000FFF74AFF07F12003D7F8EC207F491846CA
:102BB00004F0C0F807F120031846FFF73DFF07F1C6
:102BC0002000D7F8F030D7F8F420794904F0B2F8B3
:102BD00007F120031846FFF72FFF07F12003D7F86E
:102BE000E8207449184604F0A5F807F120031846B8
:102BF000FFF722FF664B1B6893F824309B0003F518
:102C000084733B4453F8F42C07F120036A491846B7
:102C100004F090F807F120031846FFF70DFF5C4B16
:102C20001B681B681846FEF70DFA024607F12003E1
:102C30006249184604F07EF807F120031846FFF7B2
:102C4000FBFE534B1B685B681846FEF7FBF9024618
:102C500007F120035A49184604F06CF807F12003E5
:102C60001846FFF7E9FE5748FFF7E6FE564B1B688C
:102C70001B681846FEF7E6F9024607F120035349A0
:102C8000184604F057F807F120031846FFF7D4FE62
:102C90004D4B1B685B681846FEF7D4F9024607F1F6
:102CA00020034B49184604F045F807F12003184665
:102CB000FFF7C2FE444B1B689B681846FEF7C2F93B
:102CC000024607F120034349184604F033F807F1A0
:102CD00020031846FFF7B0FE3B4B1B68DB68184625
:102CE000FEF7B0F90446384B1B68DB6829491846E3
:102CF000FDF7E2FF03461846FEF7A4F90146264B0E
:102D000083FB01239A10CB17D21A13469B0013445E
:102D10005B00CA1A07F12000134622462E4904F030
:102D200009F807F120031846FFF786FE264B1B68BB
:102D30001B7C1A4607F120032849184603F0FAFFC6
:102D400007F120031846FFF777FE07F58473A3F514
:102D50008273234A1C4613460FCB84E80F001A4B9C
:102D60001B689B7D1A4607F58473A3F5827353F89D
:102D7000222007F120031B49184603F0DBFF07F16F
:102D800020031846FFF758FE1748FFF755FE2DE0C1
:102D9000A40300200000204167666666CC9B000803
:102DA00088990008A8990008C4990008DC990008CF
:102DB000F4990008109A0008289A00083C9A000824
:102DC000549A00086C9A0008A80300207C9A000816
:102DD000949A0008AC9A0008C49A0008DC9A00088B
:102DE000009C0008F09A0008049B00081B4B1B681D
:102DF0001B781A46194B1B685B7807F120001849AD
:102E000003F098FF07F120031846FFF715FE134B58
:102E10001B681B7803F00103002B02D01148FFF759
:102E20000BFE0E4B1B681B7803F00203002B02D035
:102E30000D48FFF701FE094B1B681B7803F00403E4
:102E4000002B02D00948FFF7F7FD0948FFF7F4FD12
:102E500000BF07F58677BD4690BD00BFAC030020DC
:102E6000149B0008389B0008589B0008749B0008BE
:102E7000989B000880B594B000AF786007F13003EC
:102E800020220021184603F0E8FF07F1100320225A
:102E90000021184603F0E1FF4FF00003FB6007F14B
:102EA00030031A46AF49786803F066FF0346012BEA
:102EB00037D107F13003AC491846FDF749F903460D
:102EC000002B06D1A94B1B6800211846FEF784FD94
:102ED00023E007F13003A6491846FDF739F9034608
:102EE000002B06D1A14B1B6801211846FEF774FD8B
:102EF00013E007F130039F491846FDF729F903460F
:102F0000002B06D1994B1B6802211846FEF764FD81
:102F100003E09948FFF790FD20E19848FFF78CFD0A
:102F20001CE107F10C031A469549786803F024FF69
:102F30000346012B0AD18D4B1B68FA6811461846CF
:102F4000FEF75CFD8D48FFF777FD07E107F10C0305
:102F50001A468C49786803F00FFF0346012B0AD10B
:102F6000824B1B68FA6811461846FEF769FD8348D4
:102F7000FFF762FDF2E007F10C031A468249786818
:102F800003F0FAFE0346012B0AD1784B1B68FA685E
:102F900011461846FEF776FD7848FFF74DFDDDE057
:102FA00007F10C031A467949786803F0E5FE0346F9
:102FB000012B1DD1FB684FF080411846FEF71AF82F
:102FC0000346002B02D04FF080430AE0FB687049B3
:102FD0001846FEF72DF80346002B01D06C4B00E09D
:102FE000FB686C4A126813606448FFF725FDB5E082
:102FF00069497868FDF7ACF80346002B07D1654BAB
:103000001B68634A1A605D48FFF716FDA6E007F1EA
:1030100030031A466149786803F0AEFE0346012B7F
:103020003BD107F130035E491846FDF791F803469E
:10303000002B09D14D4B1B685A491846FEF722FD5B
:103040005948FFF7F9FC89E007F130035749184662
:10305000FDF77EF80346002B0AD1444B1B684FF066
:103060007E511846FEF7ECFC5148FFF7E5FC75E091
:1030700007F130034F491846FDF76AF80346002B65
:1030800007D1444B1B6802221A744B48FFF7D4FC4B
:1030900064E04A48FFF7D0FC60E049497868FDF7F2
:1030A00057F80346002B0BD1464B1B682F4A12687A
:1030B00011461846FEF774FD4348FFF7BDFC4DE08E
:1030C00042497868FDF744F80346002B18D1404880
:1030D000FFF7B2FC4FF4FA6000F01AFB3D48FFF72F
:1030E000ABFC4FF4FA6000F013FB3B48FFF7A4FC85
:1030F0004FF4FA6000F00CFB3848FFF79DFC2DE020
:1031000037497868FDF724F80346002B02D1FFF712
:10311000A9FC23E033497868FDF71AF80346002B31
:1031200007D13148FFF788FC642000F0F1FAFFF77F
:103130003BFC2E497868FDF70BF80346002B06D0C0
:103140002B497868FDF704F80346002B03D1294882
:10315000FFF772FC02E02848FFF76EFC5037BD46CF
:1031600080BD00BF109C00081C9C0008A403002028
:10317000209C0008289C0008309C0008589C0008EF
:10318000609C0008709C00087C9C0008889C0008DB
:103190000000C843A8030020949C0008A49C0008D9
:1031A000B89C00080000BE42C09C0008E89C0008D3
:1031B000EC9C0008089D00080C9D00082C9D000850
:1031C000509D0008AC0300205C9D0008809D000815
:1031D0008C9D0008A49D0008BC9D0008D49D00089B
:1031E000E09D0008E89D0008F09D0008009E000892
:1031F000089E00080C9E0008EC9E000880B584B074
:1032000000AFF860B9607A603B600F4AFB681360FA
:103210000E4ABB6813600E4A7B6813600D4A3B6818
:103220001360862200210C4803F017FE0B4B00228E
:103230001A700B48FFF700FC0A48FFF7FDFB00BFC0
:103240001037BD4680BD00BFA0030020A4030020AE
:10325000A8030020AC030020B00300207804002065
:10326000109F0008349F000880B582B000AF43E093
:10327000274B1868F91D0A23012202F00CFEFB7986
:103280000D2B02D0FB790A2B17D1224B1B78002B78
:103290000FD0204B1B781A461F4B002199541F4812
:1032A000FFF7CAFB1C48FFF7E5FD1A4B00221A7016
:1032B00022E01B48FFF7C0FB1EE0FB79082B02D081
:1032C000FB797F2B0AD1134B1B78002B14D0114BA9
:1032D0001B78013BDAB20F4B1A700DE00D4B1B78D7
:1032E0003E2B09D80B4B1B785A1CD1B2094A1170DE
:1032F0001A46F979084B9954FB1D1846FFF76AFBEB
:103300000346002BB4D100BF00BF0837BD4680BDC7
:10331000A00300207804002038040020549F0008F7
:10332000589F000880B400AF034B1B685B6A9BB2D8
:103330001846BD4680BC70470C03002080B584B0A1
:1033400000AF0346FB80FFF7EDFF0346FB8100BFA4
:10335000FFF7E8FF03461A46FB89D31A9BB2FA88A7
:103360009A42F5D800BF00BF1037BD4680BD0000AF
:1033700080B582B000AF00237B601CE0124A7B68FE
:10338000124942F83310104A7B68DB0013440022D4
:103390001A710F4A7B681B01134418680C4A7B683A
:1033A0001B01134404331B880022194601F0A9F8BD
:1033B0007B6801337B607B68022BDFDD00BF00BFD1
:1033C0000837BD4680BD00BF7C0400200000C84314
:1033D000909F000880B588B000AF78600B46FB7006
:1033E000644BBB6000233B73FB781B01624A1344B0
:1033F000FB61FB691868FB699B880022194601F094
:1034000080F80220FFF79AFFFB691868FB699B8828
:103410000122194601F075F80A20FFF78FFFFB69BA
:103420001868FB699B880022194601F06AF8FFF7CB
:1034300079FF03467B831DE0FFF774FF03461A46BE
:103440007B8BD31A9BB247F23052934212D9FB784E
:103450004A4ADB00134407F1080292E8030083E8BC
:1034600003007B681A4607F1080393E8030082E82B
:1034700003007BE0FB699A68FB699B89194610464B
:1034800001F028F80346002BD6D0FFF74BFF034688
:103490003B831DE0FFF746FF03461A463B8BD31ADA
:1034A0009BB247F23052934212D9FB78334ADB0089
:1034B000134407F1080292E8030083E803007B68E5
:1034C0001A4607F1080393E8030082E803004DE081
:1034D000FB699A68FB699B891946104600F0FAFF60
:1034E0000346012BD6D0FFF71DFF0346FB82FA8A65
:1034F0003B8BD31ABB82BB8A1846FDF789FB034678
:103500001F491846FDF7D8FB03464FF08041184687
:10351000FDF786FC03463B614FF080413869FDF7BB
:1035200069FD0346002B02D04FF0804309E01149AA
:103530003869FDF77DFD0346002B01D00D4B00E0FF
:103540003B69BB6001233B73FB780C4ADB001344EF
:1035500007F1080292E8030083E803007B681A463B
:1035600007F1080393E8030082E803007868203736
:10357000BD4680BD0000C843909F00087C04002029
:10358000287E0C3D80B584B000AF0023FB600CE0CA
:10359000FB68DAB23B4611461846FFF71BFF3220A4
:1035A00000F0B6F8FB680133FB60FB68022BEFDD2F
:1035B00000BF00BF1037BD4680BD000080B483B09F
:1035C00000AF0346FB71FB79034A52F833301846CB
:1035D0000C37BD4680BC70477C04002080B483B0AB
:1035E00000AF0346FB71FB79044ADB0013441B79EF
:1035F00018460C37BD4680BC704700BF7C040020D5
:10360000FFF7CCF90B480C490C4A002302E0D458D0
:10361000C4500433C4188C42F9D3094A094C00231E
:1036200001E013600432A242FBD303F06FFCFEF70B
:1036300007FB704700000020D401002084A300088D
:10364000D4010020E4050020FEE7000080B500AFB3
:10365000084B1B68074A43F010031360032000F077
:1036600073FD0F2000F008F8FEF71EFF0023184638
:1036700080BD00BF0020024080B582B000AF7860FE
:10368000124B1A68124B1B7819464FF47A73B3FB2E
:10369000F1F3B2FBF3F3184600F08BFD0346002B69
:1036A00001D001230EE07B680F2B0AD80022796835
:1036B0004FF0FF3000F053FD064A7B681360002393
:1036C00000E0012318460837BD4680BD00000020F9
:1036D000080000200400002080B400AF054B1B78D8
:1036E0001A46054B1B681344034A136000BFBD46CE
:1036F00080BC7047080000209404002080B400AF14
:10370000024B1B681846BD4680BC704794040020DD
:1037100080B584B000AF7860FFF7F0FFB8607B68D9
:10372000FB60FB68B3F1FF3F05D00A4B1B781A46DC
:10373000FB681344FB6000BFFFF7E0FF0246BB6875
:10374000D31AFA689A42F7D800BF00BF1037BD46B7
:1037500080BD00BF0800002080B586B000AF786053
:103760000023FB7500233B610023BB600023FB604B
:103770007B68002B01D10123BEE07B689B68002B96
:103780007B689B6A002B09D17B680022DA627B6828
:10379000002283F824207868FEF7B8FE786800F0ED
:1037A000C5FB0346FB757B689B6A03F01003002B87
:1037B00040F09980FB7D002B40F095807B689B6AF0
:1037C00023F4885323F0020343F002027B689A62D9
:1037D0007B685A687B68DB691A437B681B7B5B00EC
:1037E0001343BA681343BB607B689B68B3F5807F63
:1037F00003D07B689B68012B02D14FF4807300E0FB
:1038000000233A6913433B617B681B7D012B19D16F
:103810007B681B7B002B09D17B689B69013B5A03AA
:103820003B69134343F400633B610BE07B689B6A95
:1038300043F020027B689A627B68DB6A43F00102F6
:103840007B68DA627B681B685B6823F469417B688C
:103850001B683A690A435A607B681B689A68284B60
:1038600013407A681268B9680B4393607B689B6861
:10387000B3F5807F03D07B689B68012B04D17B6804
:103880001B69013B1B05FB607B681B68DB6A23F43B
:1038900070017B681B68FA680A43DA627B681B6800
:1038A0009A68184B1340BA689A420BD17B68002281
:1038B000DA627B689B6A23F0030343F001027B68B2
:1038C0009A6218E07B689B6A23F0120343F01002AF
:1038D0007B689A627B68DB6A43F001027B68DA628C
:1038E0000123FB7507E07B689B6A43F010027B684D
:1038F0009A620123FB75FB7D18461837BD4680BDD3
:10390000FDF7E1FFFE0E1FFF80B584B000AF7860C9
:103910000023FB737B6893F82430012B01D1022331
:1039200098E07B68012283F82420786800F0A4FAEC
:103930000346FB73FB7B002B40F087807B689B6A10
:1039400023F4407323F0010343F480727B689A628E
:103950007B681B68414A934205D1414B5B6803F485
:103960007023002B15D17B689B6A23F480127B683F
:103970009A627B681B685B6803F48063002B26D027
:103980007B689B6A23F4405343F480527B689A62BD
:103990001DE07B689B6A43F480127B689A627B68B7
:1039A0001B682F4A934204D07B681B682B4A9342C2
:1039B0000DD12B4B5B6803F48063002B07D07B6831
:1039C0009B6A23F4405343F480527B689A627B687D
:1039D0009B6A03F48053002B06D07B68DB6A23F0DC
:1039E00006027B68DA6202E07B680022DA627B68AA
:1039F000002283F824207B681B686FF002021A60A3
:103A00007B681B689B6803F46023B3F5602F13D1B8
:103A10007B681B68114A934205D1114B5B6803F424
:103A20007023002B08D17B681B689A687B681B6831
:103A300042F4A0029A600CE07B681B689A687B687D
:103A40001B6842F480129A6003E07B68002283F8CE
:103A50002420FB7B18461037BD4680BD002801405E
:103A60000024014090B587B000AF78603960002332
:103A70007B610023FB6000233B61FFF73FFE786121
:103A80007B681B689B6803F48073002B0BD07B68FA
:103A90009B6A43F020027B689A627B68002283F86D
:103AA00024200123D3E07B681B685B6803F48073E8
:103AB000002B31D17B681B68DB6A03F47003002B99
:103AC0002AD121E03B68B3F1FF3F1DD03B68002BBA
:103AD00007D0FFF713FE02467B69D31A3A689A4271
:103AE00012D27B681B681B6803F00203002B0BD10A
:103AF0007B689B6A43F004027B689A627B680022C1
:103B000083F824200323A2E07B681B681B6803F072
:103B10000203002BD6D070E04F4B1C68022001F04E
:103B2000CFF90346B4FBF3F27B681B6819694B4B72
:103B30000B40002B18D17B681B68D968484B0B40A1
:103B4000002B11D17B681B681969464B0B40002B79
:103B500008D17B681B68D968434B0B40002B01D10F
:103B6000142320E029231EE07B681B6819693D4B64
:103B70000B40002B06D17B681B68D9683A4B0B4081
:103B8000002B0DD07B681B681969384B0B40002B4C
:103B900008D17B681B68D968344B0B40002B01D1DE
:103BA000542300E0FC2302FB03F33B6121E03B686C
:103BB000B3F1FF3F1AD03B68002B07D0FFF79EFD03
:103BC00002467B69D31A3A689A420FD2FB683A6977
:103BD0009A420BD97B689B6A43F004027B689A6225
:103BE0007B68002283F82420032330E0FB68013344
:103BF000FB60FB683A699A42D9D87B681B686FF012
:103C000012021A607B689B6A43F400727B689A62B6
:103C10007B681B689B6803F46023B3F5602F15D1A4
:103C20007B681B7B002B11D17B689B6A23F480721D
:103C30007B689A627B689B6A03F48053002B05D1F2
:103C40007B689B6A43F001027B689A6200231846F6
:103C50001C37BD4690BD00BF0000002024499224BF
:103C60002449920092244912922449004992240046
:103C700080B483B000AF78607B681B68DB6C18464B
:103C80000C37BD4680BC704780B485B000AF78600B
:103C900039600023FB730023BB607B6893F82430FA
:103CA000012B01D10223DCE07B68012283F8242070
:103CB0003B685B68062B1CD87B681B68596B3B68AC
:103CC0005A6813469B001344053B1F2202FA03F374
:103CD000DB4319403B6818683B685A6813469B00F1
:103CE0001344053B00FA03F27B681B680A435A63DE
:103CF0003CE03B685B680C2B1CD87B681B68196B2D
:103D00003B685A6813469B001344233B1F2202FA68
:103D100003F3DB4319403B6818683B685A68134655
:103D20009B001344233B00FA03F27B681B680A43A1
:103D30001A631BE07B681B68D96A3B685A681346A4
:103D40009B001344413B1F2202FA03F3DB4319405B
:103D50003B6818683B685A6813469B001344413B14
:103D600000FA03F27B681B680A43DA623B681B684F
:103D7000092B1CD97B681B68D9683B681A681346F5
:103D80005B0013441E3B072202FA03F3DB43194096
:103D90003B6898683B681A6813465B0013441E3BF7
:103DA00000FA03F27B681B680A43DA6019E07B685B
:103DB0001B6819693B681A6813465B0013440722A5
:103DC00002FA03F3DB4319403B6898683B681A68C2
:103DD00013465B00134400FA03F27B681B680A4336
:103DE0001A613B681B68102B03D03B681B68112BC2
:103DF00032D17B681B681D4A934225D17B681B68C2
:103E00009B6803F40003002B26D17B681B689A682B
:103E10007B681B6842F400029A603B681B68102BA9
:103E20001AD1134B1B68134AA2FB03239A0C1346A7
:103E30009B0013445B00BB6002E0BB68013BBB60BE
:103E4000BB68002BF9D107E07B689B6A43F0200236
:103E50007B689A620123FB737B68002283F824202D
:103E6000FB7B18461437BD4680BC704700240140D8
:103E70000000002083DE1B4380B584B000AF786073
:103E80000023FB600023BB607B681B689B6803F01A
:103E90000103012B40D07B681B689A687B681B6814
:103EA00042F001029A601F4B1B681F4AA2FB0323CA
:103EB0009B0CBB6002E0BB68013BBB60BB68002B96
:103EC000F9D1FFF71BFCF8601FE0FFF717FC024673
:103ED000FB68D31A022B18D97B681B689B6803F018
:103EE0000103012B11D07B689B6A43F010027B68B1
:103EF0009A627B68DB6A43F001027B68DA627B6866
:103F0000002283F82420012307E07B681B689B685C
:103F100003F00103012BD8D1002318461037BD460A
:103F200080BD00BF0000002083DE1B4380B584B04D
:103F300000AF78600023FB607B681B689B6803F020
:103F40000103012B2ED17B681B689A687B681B6874
:103F500022F001029A60FFF7D1FBF8601BE0FFF747
:103F6000CDFB0246FB68D31A022B14D97B681B6871
:103F70009B6803F00103012B0DD17B689B6A43F022
:103F800010027B689A627B68DB6A43F001027B68FF
:103F9000DA62012307E07B681B689B6803F001037A
:103FA000012BDCD0002318461037BD4680BD000031
:103FB00080B485B000AF78607B6803F00703FB60D6
:103FC0000C4BDB68BB60BA684FF6FF031340BB6065
:103FD000FB681A02BB68134343F0BF6343F400332A
:103FE000BB60044ABB68D36000BF1437BD4680BCC9
:103FF000704700BF00ED00E080B400AF044BDB6809
:104000001B0A03F007031846BD4680BC704700BF7B
:1040100000ED00E080B483B000AF0346FB7197F978
:104020000730002B0BDBFB7903F01F02064997F9E1
:1040300007305B09012000FA02F241F8232000BF9B
:104040000C37BD4680BC704700E100E080B483B00F
:1040500000AF03463960FB7197F90730002B0ADB8C
:104060003B68DAB20C4997F907301201D2B20B441F
:1040700083F800230AE03B68DAB20849FB7903F0D1
:104080000F03043B1201D2B20B441A7600BF0C3767
:10409000BD4680BC704700BF00E100E000ED00E0DD
:1040A00080B489B000AFF860B9607A60FB6803F053
:1040B0000703FB61FB69C3F10703042B28BF04233B
:1040C000BB61FB690433062B02D9FB69033B00E0AB
:1040D00000237B614FF0FF32BB6902FA03F3DA433E
:1040E000BB681A407B699A404FF0FF317B6901FA47
:1040F00003F3D9437B680B40134318462437BD466E
:1041000080BC704780B582B000AF78607B68013BAF
:10411000B3F1807F01D301230FE00A4A7B68013BA2
:1041200053600F214FF0FF30FFF790FF054B002247
:104130009A60044B07221A60002318460837BD46D0
:1041400080BD00BF10E000E080B582B000AF7860B5
:104150007868FFF72DFF00BF0837BD4680BD80B5EA
:1041600086B000AF0346B9607A60FB7300237B61C1
:10417000FFF742FF78617A68B9687869FFF790FFC6
:10418000024697F90F3011461846FFF75FFF00BF50
:104190001837BD4680BD80B582B000AF0346FB71C5
:1041A00097F907301846FFF735FF00BF0837BD46BF
:1041B00080BD80B582B000AF78607868FFF7A2FF5D
:1041C000034618460837BD4680BD000080B48BB05A
:1041D00000AF7860396000237B6200233B6269E1B5
:1041E00001227B6A02FA03F3FB613B681B68FA69F0
:1041F0001340BB61BA69FB699A4240F058813B6841
:104200005B689A4A93425ED0984A934275D8984A1E
:10421000934258D0964A93426FD8964A934252D0CE
:10422000944A934269D8944A93424CD0924A93421A
:1042300063D8924A934246D0904A93425DD8122B5B
:104240002AD8122B59D801A252F823F0C7420008ED
:10425000A1420008B3420008F5420008FB420008F2
:10426000FB420008FB420008FB420008FB4200083A
:10427000FB420008FB420008FB420008FB4200082A
:10428000FB420008FB420008FB420008FB4200081A
:10429000A9420008BD420008794A934213D02CE09D
:1042A0003B68DB683B6229E03B68DB6804333B62C8
:1042B00024E03B68DB6808333B621FE03B68DB6857
:1042C0000C333B621AE03B689B68002B02D104234D
:1042D0003B6213E03B689B68012B05D108233B62DE
:1042E0007B68FA691A6109E008233B627B68FA6916
:1042F0005A6103E000233B6200E000BFBB69FF2B73
:1043000001D87B6801E07B6804337B61BB69FF2BCC
:1043100002D87B6A9B0002E07B6A083B9B003B6102
:104320007B691A680F213B6901FA03F3DB431A40EA
:10433000396A3B6901FA03F31A437B691A603B68E7
:104340005B6803F08053002B00F0B1804D4B9B69FC
:104350004C4A43F0010393614A4B9B6903F001030C
:10436000BB60BB68484A7B6A9B08023352F8233023
:10437000FB607B6A03F003039B000F2202FA03F346
:10438000DB43FA681340FB607B68404A934213D0DA
:104390007B683F4A93420DD07B683E4A934207D0E8
:1043A0007B683D4A934201D1032306E0042304E0E5
:1043B000022302E0012300E000237A6A02F00302F4
:1043C00092009340FA681343FB602F497B6A9B0875
:1043D0000233FA6841F823203B685B6803F48013DA
:1043E000002B06D02D4B9A682C49BB6913438B6078
:1043F00006E02A4B9A68BB69DB43284913408B606F
:104400003B685B6803F40013002B06D0234BDA688B
:104410002249BB691343CB6006E0204BDA68BB69D5
:10442000DB431E491340CB603B685B6803F40033F9
:10443000002B06D0194B5A681849BB6913434B60CF
:1044400006E0164B5A68BB69DB43144913404B60C6
:104450003B685B6803F48033002B21D00F4B1A6854
:104460000E49BB6913430B6021E000BF000032100E
:104470000000311000002210000021100000121076
:10448000000011100010024000000140000801402F
:10449000000C0140001001400014014000040140E4
:1044A0000B4B1A68BB69DB43094913400B607B6AFD
:1044B00001337B623B681A687B6A22FA03F3002BA4
:1044C0007FF48EAE00BF00BF2C37BD4680BC704766
:1044D0000004014080B485B000AF78600B467B805B
:1044E0007B689A687B881340002B02D00123FB7302
:1044F00001E00023FB73FB7B18461437BD4680BCEC
:10450000704780B483B000AF78600B467B80134661
:104510007B707B78002B03D07A887B681A6103E07C
:104520007B881A047B681A6100BF0C37BD4680BCCB
:104530007047000080B586B000AF78607B68002BC4
:1045400001D1012372E27B681B6803F00103002B99
:1045500000F08780924B5B6803F00C03042B0CD0B7
:104560008F4B5B6803F00C03082B12D18C4B5B68FC
:1045700003F48033B3F5803F0BD1894B1B6803F400
:104580000033002B6CD07B685B68002B68D1012363
:104590004CE27B685B68B3F5803F06D1804B1B68BB
:1045A0007F4A43F4803313602EE07B685B68002B06
:1045B0000CD17B4B1B687A4A23F480331360784B11
:1045C0001B68774A23F4802313601DE07B685B68D7
:1045D000B3F5A02F0CD1724B1B68714A43F48023B2
:1045E00013606F4B1B686E4A43F4803313600BE01B
:1045F0006B4B1B686A4A23F480331360684B1B685B
:10460000674A23F4802313607B685B68002B13D018
:10461000FFF774F8386108E0FFF770F802463B696D
:10462000D31A642B01D9032300E25D4B1B6803F40A
:104630000033002BF0D014E0FFF760F8386108E099
:10464000FFF75CF802463B69D31A642B01D90323B8
:10465000ECE1534B1B6803F40033002BF0D100E076
:1046600000BF7B681B6803F00203002B63D04C4B38
:104670005B6803F00C03002B0BD0494B5B6803F025
:104680000C03082B1CD1464B5B6803F48033002BD2
:1046900016D1434B1B6803F00203002B05D07B6847
:1046A0001B69012B01D00123C0E13D4B1B6823F0A6
:1046B000F8027B685B69DB00394913430B603AE021
:1046C0007B681B69002B20D0364B01221A60FFF754
:1046D00015F8386108E0FFF711F802463B69D31A74
:1046E000022B01D90323A1E12D4B1B6803F0020328
:1046F000002BF0D02A4B1B6823F0F8027B685B6923
:10470000DB00274913430B6015E0264B00221A609B
:10471000FEF7F4FF386108E0FEF7F0FF02463B6960
:10472000D31A022B01D9032380E11D4B1B6803F030
:104730000203002BF0D17B681B6803F00803002BF9
:104740003AD07B689B69002B19D0174B01221A6065
:10475000FEF7D4FF386108E0FEF7D0FF02463B6960
:10476000D31A022B01D9032360E10D4B5B6A03F0DE
:104770000203002BF0D0012000F0CEFA1CE00A4B1F
:1047800000221A60FEF7BAFF38610FE0FEF7B6FFAD
:1047900002463B69D31A022B08D9032346E100BF26
:1047A000001002400000424280044242924B5B6A89
:1047B00003F00203002BE9D17B681B6803F00403BC
:1047C000002B00F0A6800023FB758B4BDB6903F008
:1047D0008053002B0DD1884BDB69874A43F080530F
:1047E000D361854BDB6903F08053BB60BB68012359
:1047F000FB75824B1B6803F48073002B18D17F4B31
:104800001B687E4A43F480731360FEF777FF3861BC
:1048100008E0FEF773FF02463B69D31A642B01D907
:10482000032303E1754B1B6803F48073002BF0D066
:104830007B68DB68012B06D16F4B1B6A6E4A43F025
:10484000010313622DE07B68DB68002B0CD16A4BFF
:104850001B6A694A23F001031362674B1B6A664AAD
:1048600023F0040313621CE07B68DB68052B0CD18A
:10487000614B1B6A604A43F0040313625E4B1B6A80
:104880005D4A43F0010313620BE05B4B1B6A5A4A1B
:1048900023F001031362584B1B6A574A23F00403A9
:1048A00013627B68DB68002B15D0FEF727FF3861A9
:1048B0000AE0FEF723FF02463B69D31A41F2883231
:1048C000934201D90323B1E04B4B1B6A03F002036F
:1048D000002BEED014E0FEF711FF38610AE0FEF77E
:1048E0000DFF02463B69D31A41F28832934201D947
:1048F00003239BE0404B1B6A03F00203002BEED125
:10490000FB7D012B05D13C4BDB693B4A23F08053F7
:10491000D3617B68DB69002B00F08780364B5B68D6
:1049200003F00C03082B61D07B68DB69022B46D1B6
:10493000334B00221A60FEF7E1FE386108E0FEF713
:10494000DDFE02463B69D31A022B01D903236DE039
:10495000294B1B6803F00073002BF0D17B681B6AA6
:10496000B3F5803F08D1244B5B6823F400327B68A9
:104970009B68214913434B601F4B5B6823F47412FF
:104980007B68196A7B685B6A0B431B4913434B6066
:104990001B4B01221A60FEF7B1FE386108E0FEF7FA
:1049A000ADFE02463B69D31A022B01D903233DE039
:1049B000114B1B6803F00073002BF0D035E0104B57
:1049C00000221A60FEF79AFE386108E0FEF796FEB4
:1049D00002463B69D31A022B01D9032326E0064B7A
:1049E0001B6803F00073002BF0D11EE07B68DB69CD
:1049F000012B07D1012319E0001002400070004094
:104A0000600042420B4B5B68FB60FB6803F4803242
:104A10007B681B6A9A4206D1FB6803F470127B68BC
:104A20005B6A9A4201D0012300E000231846183740
:104A3000BD4680BD0010024080B584B000AF7860F4
:104A400039607B68002B01D10123D0E06A4B1B68E1
:104A500003F007033A689A4210D9674B1B6823F0AA
:104A6000070265493B6813430B60634B1B6803F007
:104A700007033A689A4201D00123B8E07B681B68BB
:104A800003F00203002B20D07B681B6803F00403B3
:104A9000002B05D0594B5B68584A43F4E0635360E0
:104AA0007B681B6803F00803002B05D0534B5B6841
:104AB000524A43F460535360504B5B6823F0F0025A
:104AC0007B689B684D4913434B607B681B6803F010
:104AD0000103002B40D07B685B68012B07D1474B5B
:104AE0001B6803F40033002B15D101237FE07B68A2
:104AF0005B68022B07D1414B1B6803F00073002B4E
:104B000009D1012373E03D4B1B6803F00203002B26
:104B100001D101236BE0394B5B6823F003027B6812
:104B20005B68364913434B60FEF7E8FDF8600AE026
:104B3000FEF7E4FD0246FB68D31A41F28832934245
:104B400001D9032353E02D4B5B6803F00C027B6813
:104B50005B689B009A42EBD1274B1B6803F007036D
:104B60003A689A4210D2244B1B6823F0070222496C
:104B70003B6813430B60204B1B6803F007033A6844
:104B80009A4201D0012332E07B681B6803F00403E2
:104B9000002B08D0194B5B6823F4E0627B68DB686C
:104BA000164913434B607B681B6803F00803002B16
:104BB00009D0124B5B6823F460527B681B69DB00F1
:104BC0000E4913434B6000F021F802460B4B5B6823
:104BD0001B0903F00F030A49CB5C22FA03F3094ACD
:104BE0001360094B1B681846FEF746FD0023184664
:104BF0001037BD4680BD00BF0020024000100240BB
:104C0000789F0008000000200400002080B487B0D6
:104C100000AF0023FB600023BB6000237B61002307
:104C20007B6000233B611E4B5B68FB60FB6803F00D
:104C30000C03042B02D0082B03D027E0194B3B6157
:104C400027E0FB689B0C03F00F03174AD35C7B60E3
:104C5000FB6803F48033002B10D0114B5B685B0CB6
:104C600003F00103114AD35CBB607B680D4A03FB70
:104C700002F2BB68B2FBF3F37B6104E07B680C4A91
:104C800002FB03F37B617B693B6102E0054B3B6107
:104C900000BF3B6918461C37BD4680BC704700BF4B
:104CA0000010024000127A00C09F0008D09F000848
:104CB00000093D0080B400AF024B1B681846BD469A
:104CC00080BC70470000002080B500AFFFF7F2FF06
:104CD0000246054B5B681B0A03F007030349CB5CE4
:104CE00022FA03F3184680BD00100240889F000896
:104CF00080B500AFFFF7DEFF0246054B5B68DB0ABD
:104D000003F007030349CB5C22FA03F3184680BD86
:104D100000100240889F000880B485B000AF786022
:104D20000A4B1B680A4AA2FB03235B0A7A6802FB50
:104D300003F3FB6000BFFB685A1EFA60002BF9D139
:104D400000BF00BF1437BD4680BC70470000002084
:104D5000D34D621080B586B000AF786000233B6110
:104D60000023FB607B681B6803F00103002B7DD0F0
:104D70000023FB754F4BDB6903F08053002B0DD1F3
:104D80004C4BDB694B4A43F08053D361494BDB69A1
:104D900003F08053BB60BB680123FB75464B1B6867
:104DA00003F48073002B18D1434B1B68424A43F431
:104DB00080731360FEF7A2FC386108E0FEF79EFCEA
:104DC00002463B69D31A642B01D903236DE03A4BA9
:104DD0001B6803F48073002BF0D0364B1B6A03F47E
:104DE0004073FB60FB68002B2ED07B685B6803F48C
:104DF0004073FA689A4227D02E4B1B6A23F4407303
:104E0000FB602E4B01221A602C4B00221A60294AAB
:104E1000FB681362FB6803F00103002B14D0FEF75C
:104E20006DFC38610AE0FEF769FC02463B69D31A63
:104E300041F28832934201D9032336E01D4B1B6AAD
:104E400003F00203002BEED01A4B1B6A23F44072CE
:104E50007B685B68174913430B62FB7D012B05D10F
:104E6000144BDB69134A23F08053D3617B681B68C2
:104E700003F00203002B08D00E4B5B6823F4404282
:104E80007B689B680B4913434B607B681B6803F08E
:104E90001003002B08D0074B5B6823F480027B686B
:104EA000DB68044913434B60002318461837BD469E
:104EB00080BD00BF0010024000700040400442422C
:104EC00080B588B000AF786000237B610023FB6170
:104ED00000233B610023FB600023BB617B68102B38
:104EE0000AD07B68102B00F28A807B68012B45D0AA
:104EF0007B68022B75D082E0464B5B68FB60454BBC
:104F00001B6803F08073002B7BD0FB689B0C03F0C5
:104F10000F03414AD35C3B61FB6803F48033002BF1
:104F200015D03C4B5B685B0C03F001033B4AD35C40
:104F30007B61FB6803F48033002B0DD0384A7B691A
:104F4000B2FBF3F23B6902FB03F3FB6104E03B6954
:104F5000344A02FB03F3FB612E4B5B6803F48003CE
:104F6000B3F5800F02D1FB69BB614AE0FB695B00CE
:104F70002D4AA2FB03235B08BB6142E0254B1B6A61
:104F8000FB60FB6803F44073B3F5807F08D1FB68D6
:104F900003F00203002B03D04FF40043BB611FE07A
:104FA000FB6803F44073B3F5007F09D1194B5B6ACA
:104FB00003F00203002B03D049F64043BB610FE02E
:104FC000FB6803F44073B3F5407F1CD1114B1B68A1
:104FD00003F40033002B16D04FF22443BB6112E0E0
:104FE00011E0FFF785FE02460A4B5B689B0B03F05E
:104FF000030301335B00B2FBF3F3BB6104E000BFCA
:1050000002E000BF00E000BFBB6918462037BD4684
:1050100080BD00BF00100240D49F0008E49F00083C
:1050200000127A0000093D00ABAAAAAA80B582B09E
:1050300000AF78607B68002B01D1012341E07B68E1
:1050400093F83D30DBB2002B06D17B68002283F859
:105050003C207868FDF796FA7B68022283F83D20B1
:105060007B681A687B6804331946104600F076FBAB
:105070007B68012283F846207B68012283F83E206A
:105080007B68012283F83F207B68012283F840205F
:105090007B68012283F841207B68012283F842204B
:1050A0007B68012283F843207B68012283F8442037
:1050B0007B68012283F845207B68012283F83D202C
:1050C000002318460837BD4680BD000080B485B077
:1050D00000AF78607B6893F83D30DBB2012B01D0E4
:1050E00001233AE07B68022283F83D207B681B683D
:1050F000DA687B681B6842F00102DA607B681B6833
:10510000184A93420ED07B681B68B3F1804F09D0D8
:105110007B681B68144A934204D07B681B68134A5F
:10512000934211D17B681B689B6803F00703FB6007
:10513000FB68062B10D07B681B681A687B681B68AD
:1051400042F001021A6007E07B681B681A687B68FE
:105150001B6842F001021A60002318461437BD464E
:1051600080BC7047002C0140000400400008004053
:1051700080B582B000AF78607B68002B01D101233D
:1051800041E07B6893F83D30DBB2002B06D17B68B1
:10519000002283F83C20786800F039F87B6802220E
:1051A00083F83D207B681A687B68043319461046F3
:1051B00000F0D4FA7B68012283F846207B68012244
:1051C00083F83E207B68012283F83F207B68012220
:1051D00083F840207B68012283F841207B6801220C
:1051E00083F842207B68012283F843207B680122F8
:1051F00083F844207B68012283F845207B680122E4
:1052000083F83D20002318460837BD4680BD80B492
:1052100083B000AF786000BF0C37BD4680BC7047DC
:1052200080B584B000AF78607B681B68DB68FB608A
:105230007B681B681B69BB60BB6803F00203002B23
:1052400020D0FB6803F00203002B1BD07B681B6897
:105250006FF002021A617B6801221A777B681B6873
:105260009B6903F00303002B03D0786800F05AFA1F
:1052700005E0786800F04DFA786800F05CFA7B6829
:1052800000221A77BB6803F00403002B20D0FB68D0
:1052900003F00403002B1BD07B681B686FF0040233
:1052A0001A617B6802221A777B681B689B6903F48A
:1052B0004073002B03D0786800F034FA05E078687A
:1052C00000F027FA786800F036FA7B6800221A7737
:1052D000BB6803F00803002B20D0FB6803F0080331
:1052E000002B1BD07B681B686FF008021A617B687B
:1052F00004221A777B681B68DB6903F00303002B29
:1053000003D0786800F00EFA05E0786800F001FA42
:10531000786800F010FA7B6800221A77BB6803F007
:105320001003002B20D0FB6803F01003002B1BD0D0
:105330007B681B686FF010021A617B6808221A777D
:105340007B681B68DB6903F44073002B03D078682B
:1053500000F0E8F905E0786800F0DBF9786800F023
:10536000EAF97B6800221A77BB6803F00103002B7F
:105370000CD0FB6803F00103002B07D07B681B688F
:105380006FF001021A617868FCF738FCBB6803F023
:105390008003002B0CD0FB6803F08003002B07D0A8
:1053A0007B681B686FF080021A61786800F01AFD54
:1053B000BB6803F04003002B0CD0FB6803F04003F4
:1053C000002B07D07B681B686FF040021A61786879
:1053D00000F0BAF9BB6803F02003002B0CD0FB6887
:1053E00003F02003002B07D07B681B686FF02002BE
:1053F0001A61786800F0EDFC00BF1037BD4680BD33
:1054000080B586B000AFF860B9607A600023FB75A4
:10541000FB6893F83C30012B01D10223AEE0FB681E
:10542000012283F83C207B680C2B00F29F8001A2B4
:1054300052F823F0695400086D5500086D550008B6
:105440006D550008A95400086D5500086D550008F9
:105450006D550008EB5400086D5500086D550008A7
:105460006D5500082B550008FB681B68B968184685
:1054700000F0E2F9FB681B689A69FB681B6842F060
:1054800008029A61FB681B689A69FB681B6822F036
:1054900004029A61FB681B689969BB681A69FB681A
:1054A0001B680A439A6164E0FB681B68B968184688
:1054B00000F028FAFB681B689A69FB681B6842F4D5
:1054C00000629A61FB681B689A69FB681B6822F49A
:1054D00080629A61FB681B689969BB681B691A0244
:1054E000FB681B680A439A6143E0FB681B68B96864
:1054F000184600F071FAFB681B68DA69FB681B68E4
:1055000042F00802DA61FB681B68DA69FB681B6815
:1055100022F00402DA61FB681B68D969BB681A696A
:10552000FB681B680A43DA6123E0FB681B68B96803
:10553000184600F0BBFAFB681B68DA69FB681B6859
:1055400042F40062DA61FB681B68DA69FB681B6879
:1055500022F48062DA61FB681B68D969BB681B6949
:105560001A02FB681B680A43DA6102E00123FB753B
:1055700000BFFB68002283F83C20FB7D18461837EB
:10558000BD4680BD80B584B000AF7860396000232F
:10559000FB737B6893F83C30012B01D10223B4E00C
:1055A0007B68012283F83C207B68022283F83D203F
:1055B0007B681B689B68BB60BB6823F07703BB609C
:1055C000BB6823F47F43BB607B681B68BA689A6042
:1055D0003B681B68B3F5005F3ED0B3F5005F00F297
:1055E0008780B3F5805F00F08680B3F5805F7FD859
:1055F000702B1AD0702B7BD8602B50D0602B77D8B3
:10560000502B3CD0502B73D8402B58D0402B6FD808
:10561000302B64D0302B6BD8202B60D0202B67D858
:10562000002B5CD0102B5AD062E07B6818683B6876
:1056300099683B685A683B68DB6800F0FCFA7B6855
:105640001B689B68BB60BB6843F07703BB607B68EB
:105650001B68BA689A604FE07B6818683B68996875
:105660003B685A683B68DB6800F0E5FA7B681B68BA
:105670009A687B681B6842F480429A603CE07B68D1
:1056800018683B6859683B68DB681A4600F05CFAAA
:105690007B681B685021184600F0B3FA2CE07B6849
:1056A00018683B6859683B68DB681A4600F07AFA6C
:1056B0007B681B686021184600F0A3FA1CE07B6839
:1056C00018683B6859683B68DB681A4600F03CFA8A
:1056D0007B681B684021184600F093FA0CE07B6859
:1056E0001A683B681B681946104600F08AFA03E006
:1056F0000123FB7300E000BF7B68012283F83D209B
:105700007B68002283F83C20FB7B18461037BD469F
:1057100080BD80B483B000AF786000BF0C37BD4659
:1057200080BC704780B483B000AF786000BF0C3796
:10573000BD4680BC704780B483B000AF786000BFC6
:105740000C37BD4680BC704780B483B000AF786032
:1057500000BF0C37BD4680BC7047000080B485B0E8
:1057600000AF786039607B681B68FB607B682F4AFC
:1057700093420BD07B68B3F1804F07D07B682C4AF3
:10578000934203D07B682B4A934208D1FB6823F0F5
:105790007003FB603B685B68FA681343FB607B68DF
:1057A000224A93420BD07B68B3F1804F07D07B68CD
:1057B0001F4A934203D07B681E4A934208D1FB687C
:1057C00023F44073FB603B68DB68FA681343FB60BB
:1057D000FB6823F080023B685B691343FB607B68D6
:1057E000FA681A603B689A687B68DA623B681A68F4
:1057F0007B689A627B680D4A934203D13B681A69C1
:105800007B681A637B6801225A617B681B6903F01D
:105810000103002B05D07B681B6923F001027B6824
:105820001A6100BF1437BD4680BC7047002C014090
:10583000000400400008004080B487B000AF7860EA
:1058400039607B681B6A7B617B681B6A23F00102FD
:105850007B681A627B685B683B617B689B69FB6065
:10586000FB6823F07003FB60FB6823F00303FB601D
:105870003B681B68FA681343FB607B6923F00203F3
:105880007B613B689B687A6913437B617B681C4A38
:1058900093420CD17B6923F008037B613B68DB6892
:1058A0007A6913437B617B6923F004037B617B6826
:1058B000134A934211D13B6923F480733B613B69E6
:1058C00023F400733B613B685B693A6913433B61B6
:1058D0003B689B693A6913433B617B683A695A604C
:1058E0007B68FA689A613B685A687B685A637B6890
:1058F0007A691A6200BF1C37BD4680BC704700BF82
:10590000002C014080B487B000AF786039607B68BC
:105910001B6A7B617B681B6A23F010027B681A623A
:105920007B685B683B617B689B69FB60FB6823F479
:10593000E043FB60FB6823F44073FB603B681B683B
:105940001B02FA681343FB607B6923F020037B6131
:105950003B689B681B017A6913437B617B681D4A26
:1059600093420DD17B6923F080037B613B68DB6848
:105970001B017A6913437B617B6923F040037B61E0
:105980007B68144A934213D13B6923F480633B61E3
:105990003B6923F400633B613B685B699B003A69A8
:1059A00013433B613B689B699B003A6913433B612E
:1059B0007B683A695A607B68FA689A613B685A6802
:1059C0007B689A637B687A691A6200BF1C37BD46A0
:1059D00080BC7047002C014080B487B000AF786075
:1059E00039607B681B6A7B617B681B6A23F4807269
:1059F0007B681A627B685B683B617B68DB69FB6084
:105A0000FB6823F07003FB60FB6823F00303FB607B
:105A10003B681B68FA681343FB607B6923F40073DF
:105A20007B613B689B681B027A6913437B617B68DF
:105A30001D4A93420DD17B6923F400637B613B686F
:105A4000DB681B027A6913437B617B6923F4806303
:105A50007B617B68144A934213D13B6923F48053E2
:105A60003B613B6923F400533B613B685B691B016D
:105A70003A6913433B613B689B691B013A691343D5
:105A80003B617B683A695A607B68FA68DA613B6817
:105A90005A687B68DA637B687A691A6200BF1C37D0
:105AA000BD4680BC704700BF002C014080B487B069
:105AB00000AF786039607B681B6A3B617B681B6A5A
:105AC00023F480527B681A627B685B687B617B6829
:105AD000DB69FB60FB6823F4E043FB60FB6823F4B5
